:020000020000FC
:100000000FEF0DBF08E00EBF509A519A529A539AC3
:1000100011E001D0F5CF04E63ED02D9813E3129500
:1000200018B934D004E637D0129518B92FD012E39E
:10003000129518B92BD004E62ED0129518B926D0F7
:1000400018E2129518B922D004E625D0129518B9F5
:100050001DD011E0129518B919D004E61CD01295E4
:1000600018B914D01CE0129518B910D004E613D0BA
:10007000129518B90BD016E0129518B907D004E6FE
:100080000AD0129518B902D02D9A08952B9A02E041
:1000900002D02B9A089503D00A95E9F7089525E137
:0C00A00037EC3A95F1F72A95E1F7089546
:00000001FF
