:020000020000FC
:0200000033C00B
:020004006FC0CB
:0200140072C0B8
:1000680003E00093690001E00DBB01E00CBB002731
:100078000AB904E00093680000E900936D007894E1
:10008800F8940FEF0DBF08E00EBF0FEF07B907B9DF
:10009800509A519A529A539A11E0239A259A389A6B
:1000A800399A3A9A3B9A559A529859D00FEF1DD1DE
:1000B80045E350E360E270E003E304BD0BE005BDF7
:1000C80004E607BD00E006BD81E305E608BD7894B7
:1000D80098D00000000000000000FBCF703021F431
:1000E80071E088BDB4D0189570E005E608BDAFD0C2
:1000F80018954C9906D04F991CD004E6F6D084D0B8
:100108001895853601F4833609F4089505E0801BB7
:1001180088BD493331F4553321F441E350E360E3BA
:100128000895553319F005E0500F089501E0400F88
:100138000895853601F4843009F4089505E0800FA8
:1001480088BD603321F449E355E360E208955533EF
:1001580019F001E0401B089505E0501B0895D0D028
:100168002D9808E2C2D00FEFC0D013E3129518B94A
:10017800B5D0BFD0129518B9B1D002E3B6D00FEF01
:10018800B4D012E3129518B9A9D0B3D0129518B902
:10019800A5D002E3AAD00FEFA8D018E2129518B99B
:1001A8009DD0A7D0129518B999D002E39ED00FEF31
:1001B8009CD011E0129518B991D09BD0129518B91E
:1001C8008DD002E392D00FEF90D01CE0129518B9B1
:1001D80085D08FD0129518B981D002E386D00FEF61
:1001E80084D016E0129518B979D083D0129518B931
:1001F80075D002E37AD00FEF78D02D9A08E275D047
:10020800089502D024D008958CD0142F129518B9CF
:1002180065D06FD0129518B961D002E366D073D05B
:10022800152F129518B95AD064D0129518B956D00E
:1002380002E35BD068D0162F129518B94FD059D069
:10024800129518B94BD002E350D05DD00895A4D0D0
:10025800703011F11FE4129518B940D04AD01295A8
:1002680018B93CD002E341D04ED01EE4129518B91B
:1002780035D03FD0129518B931D002E336D043D0EB
:1002880010E1129518B92AD034D0129518B926D091
:1002980002E32BD038D008951FE4129518B91ED068
:1002A80028D0129518B91AD002E31FD02CD016E422
:1002B800129518B913D01DD0129518B90FD002E3B2
:1002C80014D021D016E4129518B908D012D012957E
:1002D80018B904D002E309D016D008952B9A00006B
:1002E8000000000000002B98089503D00A95E9F754
:1002F800089525E137EC3A95F1F72A95E1F7089545
:1003080004E6F3DF089508E2F0DF08950590002081
:1003180039F0029408B8E2DF029408B8DFDFF6CFBC
:1003280008952D9808E2E1DFEEDF00E008B9D6DF96
:10033800EADF02E008B9D2DF2D9A08E2D6DF14E43A
:10034800129518B9CBDFD5DF129518B9C7DF02E3CC
:10035800CCDFD9DF13E4129518B9C0DFCADF1295D4
:1003680018B9BCDF02E3C1DFCEDF1AE3129518B972
:10037800B5DFBFDF129518B9B1DF02E3B6DFC3DF1F
:1003880010E1129518B9AADFB4DF129518B9A6DFE3
:1003980002E3ABDFB8DF08952D9808E2A6DF0CE092
:1003A80008B99CDF00E008B999DF2D9A08E29DDFC3
:1003B8001CE4129518B992DF9CDF129518B98EDFEC
:1003C80002E393DFA0DF15E4129518B987DF91DF08
:1003D800129518B983DF02E388DF95DF14E41295DC
:1003E80018B97CDF86DF129518B978DF02E37DDF64
:1003F8008ADF1AE3129518B971DF7BDF129518B9F5
:100408006DDF02E372DF7FDF10E1129518B966DF56
:1004180070DF129518B962DF02E367DF74DF0895B1
:100428002D9808E262DF0CE008B958DF00E008B94F
:0A04380055DF2D9A08E259DF089500
:00000001FF
